:100000000EC029C027C038C025C024C023C022C0CC
:1000100021C020C01FC01EC01DC01CC01BC0112499
:100020001FBECFE5D2E0DEBFCDBF10E0A0E6B0E05E
:10003000ECE4F5E002C005900D92A236B107D9F7C5
:1000400020E0A2E6B0E001C01D92AE36B207E1F7B3
:1000500098D17AC2D5CF1F920F920FB60F9211246A
:100060008F9381E080936D0080936A008F910F9051
:100070000FBE0F901F9018951F920F920FB60F9200
:1000800011242F933F934F935F936F937F938F939D
:100090009F93AF9320916200309163004091640080
:1000A00050916500609166007091670080916800D2
:1000B00090916900A1E01CD220936200309363000C
:1000C00040936400509365006093660070936700EE
:1000D0008093680090936900AF919F918F917F9179
:1000E0006F915F914F913F912F910F900FBE0F90A5
:1000F0001F90189585B7836085BF8BB780648BBFD1
:10010000089518BC87B3826087BB8AB583638ABDB4
:1001100083B7826083BF089589B7806489BF8CE309
:100120008EBD80B7806880BF80B7836080BF10922B
:1001300062001092630010926400109265001092A9
:10014000660010926700109268001092690008958E
:1001500080B7807F80BF08952F923F924F925F9229
:100160006F927F928F929F92AF92BF92CF92DF92C7
:10017000EF92FF920F931F93CF93DF93CDB7DEB72C
:100180002B970FB6F894DEBF0FBECDBF9987888737
:10019000CB01880F991F82959295907F9827807F39
:1001A0009827861B970B880F991F880F991F680F38
:1001B000791FCB01880F991F880F991F880F991FEE
:1001C0006FEF70E036D169837A83770F770B7A8788
:1001D0007B837C837D837E837F839EDF8885998577
:1001E000892B09F445C05CC0209062003090630008
:1001F00040906400509065006090660070906700C9
:100200008090680090906900A980BA80CA84DB80E1
:10021000EC80FD800E811F81222D332D442D552D24
:10022000662D772D882D992D17D1A0E06DD101F580
:10023000222D332D442D552D662D772D882D992D6A
:1002400063D1B1F0109262001092630010926400CA
:10025000109265001092660010926700109268007C
:10026000109269009B859F5F9093600098BD00C0CD
:10027000909160009B879F3F09F0B6CF109261007C
:100280001092620010926300109264001092650058
:100290001092660010926700109268001092690038
:1002A00088859985019709F04DC043C02090620070
:1002B000309063004090640050906500609066004C
:1002C000709067008090680090906900A980BA8063
:1002D000CA84DB80EC80FD800E811F81222D332DAE
:1002E000442D552D662D772D882D992DB5D0A0E064
:1002F0000BD1F9F4222D332D442D552D662D772D5C
:10030000882D992D01D1A9F01092620010926300FE
:1003100010926400109265001092660010926700BF
:100320001092680010926900888581508093600067
:1003300088BD9091600098879111B8CF09DF81E066
:100340008093610010926B0010926D0010926C000F
:100350002B960FB6F894DEBF0FBECDBFDF91CF91C5
:100360001F910F91FF90EF90DF90CF90BF90AF90D3
:100370009F908F907F906F905F904F903F902F90C5
:100380000895789487B38F7B87BB87B3826087BBE0
:10039000B1DEB7DE80916D00813081F48091610023
:1003A00081110CC080916B00811108C081E08093A5
:1003B0006B0065E070E081E090E0CEDE80916D0042
:1003C000813081F480916100813061F480916B0013
:1003D000811108C081E080936B0065E070E080E0EF
:1003E00090E0BADE809161008111D4CF209162004B
:1003F0003091630040916400509165006091660007
:1004000070916700809168009091690021153A4BC6
:100410004F4F5F4F6F4F7F4F8F4F9F4F09F0BACFB6
:1004200081E080936B0060E17EE081E090E094DE0B
:10043000B1CF97FB072E16F4009406D077FD08D0B5
:100440006FD007FC05D03EF4909581959F4F08959D
:10045000709561957F4F0895689401C0E8948F92DC
:100460009F92CF93DF9305D0DF91CF919F908F9094
:10047000089588249924F401E401B0E41B2ED401EA
:100480009D158E049F04E007F10738F4FC014B0131
:10049000CA01B901AD019E011694220F331F441FFA
:1004A000551F661F771F881F991F881C991CEE1FF8
:1004B000FF1FCC1FDD1FAA1FBB1F8A149B04EC0566
:1004C000FD05CE05DF05A007B10748F08A189B0897
:1004D000EC09FD09CE09DF09A00BB10B21601A94CC
:1004E000E1F62EF49401AF01BE01CD01000C089598
:1004F0000024A7FD00942A0F301D401D501D601DD3
:10050000701D801D901D08950024A7FD00942A17DA
:10051000300540055005600570058005900508957B
:10052000AA1BBB1B51E107C0AA1FBB1FA617B70719
:1005300010F0A61BB70B881F991F5A95A9F7809535
:0C0540009095BC01CD010895F894FFCF08
:02054C00FF01AD
:00000001FF
